{
    "_format": "hh-sol-artifact-1",
    "contractName": "MyToken",
    "sourceName": "contracts/Mytoken.sol",
    "abi": [
        {
            "inputs": [
                {
                    "internalType": "string",
                    "name": "_name",
                    "type": "string"
                },
                {
                    "internalType": "string",
                    "name": "symbol",
                    "type": "string"
                }
            ],
            "stateMutability": "nonpayable",
            "type": "constructor"
        },
        {
            "anonymous": false,
            "inputs": [
                {
                    "indexed": true,
                    "internalType": "address",
                    "name": "owner",
                    "type": "address"
                },
                {
                    "indexed": true,
                    "internalType": "address",
                    "name": "spender",
                    "type": "address"
                },
                {
                    "indexed": false,
                    "internalType": "uint256",
                    "name": "value",
                    "type": "uint256"
                }
            ],
            "name": "Approval",
            "type": "event"
        },
        {
            "anonymous": false,
            "inputs": [
                {
                    "indexed": true,
                    "internalType": "address",
                    "name": "previousOwner",
                    "type": "address"
                },
                {
                    "indexed": true,
                    "internalType": "address",
                    "name": "newOwner",
                    "type": "address"
                }
            ],
            "name": "OwnershipTransferred",
            "type": "event"
        },
        {
            "anonymous": false,
            "inputs": [
                {
                    "indexed": true,
                    "internalType": "address",
                    "name": "from",
                    "type": "address"
                },
                {
                    "indexed": true,
                    "internalType": "address",
                    "name": "to",
                    "type": "address"
                },
                {
                    "indexed": false,
                    "internalType": "uint256",
                    "name": "value",
                    "type": "uint256"
                }
            ],
            "name": "Transfer",
            "type": "event"
        },
        {
            "inputs": [
                {
                    "internalType": "address",
                    "name": "",
                    "type": "address"
                }
            ],
            "name": "addressTime",
            "outputs": [
                {
                    "internalType": "uint256",
                    "name": "",
                    "type": "uint256"
                }
            ],
            "stateMutability": "view",
            "type": "function"
        },
        {
            "inputs": [
                {
                    "internalType": "address",
                    "name": "owner",
                    "type": "address"
                },
                {
                    "internalType": "address",
                    "name": "spender",
                    "type": "address"
                }
            ],
            "name": "allowance",
            "outputs": [
                {
                    "internalType": "uint256",
                    "name": "",
                    "type": "uint256"
                }
            ],
            "stateMutability": "view",
            "type": "function"
        },
        {
            "inputs": [
                {
                    "internalType": "address",
                    "name": "spender",
                    "type": "address"
                },
                {
                    "internalType": "uint256",
                    "name": "amount",
                    "type": "uint256"
                }
            ],
            "name": "approve",
            "outputs": [
                {
                    "internalType": "bool",
                    "name": "",
                    "type": "bool"
                }
            ],
            "stateMutability": "nonpayable",
            "type": "function"
        },
        {
            "inputs": [
                {
                    "internalType": "address",
                    "name": "account",
                    "type": "address"
                }
            ],
            "name": "balanceOf",
            "outputs": [
                {
                    "internalType": "uint256",
                    "name": "",
                    "type": "uint256"
                }
            ],
            "stateMutability": "view",
            "type": "function"
        },
        {
            "inputs": [
                {
                    "internalType": "uint256",
                    "name": "_amount",
                    "type": "uint256"
                }
            ],
            "name": "buy",
            "outputs": [],
            "stateMutability": "payable",
            "type": "function"
        },
        {
            "inputs": [],
            "name": "decimals",
            "outputs": [
                {
                    "internalType": "uint8",
                    "name": "",
                    "type": "uint8"
                }
            ],
            "stateMutability": "view",
            "type": "function"
        },
        {
            "inputs": [
                {
                    "internalType": "address",
                    "name": "spender",
                    "type": "address"
                },
                {
                    "internalType": "uint256",
                    "name": "subtractedValue",
                    "type": "uint256"
                }
            ],
            "name": "decreaseAllowance",
            "outputs": [
                {
                    "internalType": "bool",
                    "name": "",
                    "type": "bool"
                }
            ],
            "stateMutability": "nonpayable",
            "type": "function"
        },
        {
            "inputs": [],
            "name": "faucet",
            "outputs": [],
            "stateMutability": "nonpayable",
            "type": "function"
        },
        {
            "inputs": [
                {
                    "internalType": "address",
                    "name": "spender",
                    "type": "address"
                },
                {
                    "internalType": "uint256",
                    "name": "addedValue",
                    "type": "uint256"
                }
            ],
            "name": "increaseAllowance",
            "outputs": [
                {
                    "internalType": "bool",
                    "name": "",
                    "type": "bool"
                }
            ],
            "stateMutability": "nonpayable",
            "type": "function"
        },
        {
            "inputs": [
                {
                    "internalType": "address",
                    "name": "to",
                    "type": "address"
                },
                {
                    "internalType": "uint256",
                    "name": "amount",
                    "type": "uint256"
                }
            ],
            "name": "mint",
            "outputs": [],
            "stateMutability": "nonpayable",
            "type": "function"
        },
        {
            "inputs": [],
            "name": "name",
            "outputs": [
                {
                    "internalType": "string",
                    "name": "",
                    "type": "string"
                }
            ],
            "stateMutability": "view",
            "type": "function"
        },
        {
            "inputs": [],
            "name": "owner",
            "outputs": [
                {
                    "internalType": "address",
                    "name": "",
                    "type": "address"
                }
            ],
            "stateMutability": "view",
            "type": "function"
        },
        {
            "inputs": [],
            "name": "renounceOwnership",
            "outputs": [],
            "stateMutability": "nonpayable",
            "type": "function"
        },
        {
            "inputs": [],
            "name": "symbol",
            "outputs": [
                {
                    "internalType": "string",
                    "name": "",
                    "type": "string"
                }
            ],
            "stateMutability": "view",
            "type": "function"
        },
        {
            "inputs": [],
            "name": "totalSupply",
            "outputs": [
                {
                    "internalType": "uint256",
                    "name": "",
                    "type": "uint256"
                }
            ],
            "stateMutability": "view",
            "type": "function"
        },
        {
            "inputs": [
                {
                    "internalType": "address",
                    "name": "to",
                    "type": "address"
                },
                {
                    "internalType": "uint256",
                    "name": "amount",
                    "type": "uint256"
                }
            ],
            "name": "transfer",
            "outputs": [
                {
                    "internalType": "bool",
                    "name": "",
                    "type": "bool"
                }
            ],
            "stateMutability": "nonpayable",
            "type": "function"
        },
        {
            "inputs": [
                {
                    "internalType": "address",
                    "name": "from",
                    "type": "address"
                },
                {
                    "internalType": "address",
                    "name": "to",
                    "type": "address"
                },
                {
                    "internalType": "uint256",
                    "name": "amount",
                    "type": "uint256"
                }
            ],
            "name": "transferFrom",
            "outputs": [
                {
                    "internalType": "bool",
                    "name": "",
                    "type": "bool"
                }
            ],
            "stateMutability": "nonpayable",
            "type": "function"
        },
        {
            "inputs": [
                {
                    "internalType": "address",
                    "name": "newOwner",
                    "type": "address"
                }
            ],
            "name": "transferOwnership",
            "outputs": [],
            "stateMutability": "nonpayable",
            "type": "function"
        },
        {
            "inputs": [],
            "name": "withdraw",
            "outputs": [],
            "stateMutability": "nonpayable",
            "type": "function"
        }
    ],
    "bytecode": "0x6080604052670de0b6b3a76400006006553480156200001d57600080fd5b50604051620012c4380380620012c4833981016040819052620000409162000333565b81518290829062000059906003906020850190620001d6565b5080516200006f906004906020840190620001d6565b5050506200008c62000086620000ba60201b60201c565b620000be565b620000b2336200009f6012600a62000401565b620000ac9060c8620004cf565b62000110565b50506200055a565b3390565b600580546001600160a01b038381166001600160a01b0319831681179093556040519116919082907f8be0079c531659141344cd1fd0a4f28419497f9722a3daafe3b4186f6b6457e090600090a35050565b6001600160a01b0382166200016b5760405162461bcd60e51b815260206004820152601f60248201527f45524332303a206d696e7420746f20746865207a65726f206164647265737300604482015260640160405180910390fd5b80600260008282546200017f91906200039d565b90915550506001600160a01b038216600081815260208181526040808320805486019055518481527fddf252ad1be2c89b69c2b068fc378daa952ba7f163c4a11628f55a4df523b3ef910160405180910390a35050565b828054620001e490620004f1565b90600052602060002090601f01602090048101928262000208576000855562000253565b82601f106200022357805160ff191683800117855562000253565b8280016001018555821562000253579182015b828111156200025357825182559160200191906001019062000236565b506200026192915062000265565b5090565b5b8082111562000261576000815560010162000266565b600082601f8301126200028e57600080fd5b81516001600160401b0380821115620002ab57620002ab62000544565b604051601f8301601f19908116603f01168101908282118183101715620002d657620002d662000544565b81604052838152602092508683858801011115620002f357600080fd5b600091505b83821015620003175785820183015181830184015290820190620002f8565b83821115620003295760008385830101525b9695505050505050565b600080604083850312156200034757600080fd5b82516001600160401b03808211156200035f57600080fd5b6200036d868387016200027c565b935060208501519150808211156200038457600080fd5b5062000393858286016200027c565b9150509250929050565b60008219821115620003b357620003b36200052e565b500190565b600181815b80851115620003f9578160001904821115620003dd57620003dd6200052e565b80851615620003eb57918102915b93841c9390800290620003bd565b509250929050565b60006200041260ff84168362000419565b9392505050565b6000826200042a57506001620004c9565b816200043957506000620004c9565b81600181146200045257600281146200045d576200047d565b6001915050620004c9565b60ff8411156200047157620004716200052e565b50506001821b620004c9565b5060208310610133831016604e8410600b8410161715620004a2575081810a620004c9565b620004ae8383620003b8565b8060001904821115620004c557620004c56200052e565b0290505b92915050565b6000816000190483118215151615620004ec57620004ec6200052e565b500290565b600181811c908216806200050657607f821691505b602082108114156200052857634e487b7160e01b600052602260045260246000fd5b50919050565b634e487b7160e01b600052601160045260246000fd5b634e487b7160e01b600052604160045260246000fd5b610d5a806200056a6000396000f3fe6080604052600436106101145760003560e01c8063715018a6116100a0578063d96a094a11610064578063d96a094a146102ee578063dd62ed3e14610301578063de5f72fd14610321578063f179b66d14610336578063f2fde38b1461036357600080fd5b8063715018a61461025c5780638da5cb5b1461027157806395d89b4114610299578063a457c2d7146102ae578063a9059cbb146102ce57600080fd5b8063313ce567116100e7578063313ce567146101b357806339509351146101cf5780633ccfd60b146101ef57806340c10f191461020657806370a082311461022657600080fd5b806306fdde0314610119578063095ea7b31461014457806318160ddd1461017457806323b872dd14610193575b600080fd5b34801561012557600080fd5b5061012e610383565b60405161013b9190610c6e565b60405180910390f35b34801561015057600080fd5b5061016461015f366004610c2b565b610415565b604051901515815260200161013b565b34801561018057600080fd5b506002545b60405190815260200161013b565b34801561019f57600080fd5b506101646101ae366004610bef565b61042d565b3480156101bf57600080fd5b506040516012815260200161013b565b3480156101db57600080fd5b506101646101ea366004610c2b565b610451565b3480156101fb57600080fd5b50610204610473565b005b34801561021257600080fd5b50610204610221366004610c2b565b6104aa565b34801561023257600080fd5b50610185610241366004610b9a565b6001600160a01b031660009081526020819052604090205490565b34801561026857600080fd5b506102046104b8565b34801561027d57600080fd5b506005546040516001600160a01b03909116815260200161013b565b3480156102a557600080fd5b5061012e6104cc565b3480156102ba57600080fd5b506101646102c9366004610c2b565b6104db565b3480156102da57600080fd5b506101646102e9366004610c2b565b61055b565b6102046102fc366004610c55565b610569565b34801561030d57600080fd5b5061018561031c366004610bbc565b6105b0565b34801561032d57600080fd5b506102046105db565b34801561034257600080fd5b50610185610351366004610b9a565b60076020526000908152604090205481565b34801561036f57600080fd5b5061020461037e366004610b9a565b61065b565b60606003805461039290610ce9565b80601f01602080910402602001604051908101604052809291908181526020018280546103be90610ce9565b801561040b5780601f106103e05761010080835404028352916020019161040b565b820191906000526020600020905b8154815290600101906020018083116103ee57829003601f168201915b5050505050905090565b6000336104238185856106d1565b5060019392505050565b60003361043b8582856107f5565b61044685858561086f565b506001949350505050565b60003361042381858561046483836105b0565b61046e9190610cc3565b6106d1565b61047b610a13565b60405133904780156108fc02916000818181858888f193505050501580156104a7573d6000803e3d6000fd5b50565b6104b48282610a6d565b5050565b6104c0610a13565b6104ca6000610b2c565b565b60606004805461039290610ce9565b600033816104e982866105b0565b90508381101561054e5760405162461bcd60e51b815260206004820152602560248201527f45524332303a2064656372656173656420616c6c6f77616e63652062656c6f77604482015264207a65726f60d81b60648201526084015b60405180910390fd5b61044682868684036106d1565b60003361042381858561086f565b600034116105a65760405162461bcd60e51b815260206004820152600a60248201526973656e64206d6f6e657960b01b6044820152606401610545565b6104a73382610a6d565b6001600160a01b03918216600090815260016020908152604080832093909416825291909152205490565b3360009081526007602052604090205442116106325760405162461bcd60e51b81526020600482015260166024820152756e65656420746f2077616974206d6f72652074696d6560501b6044820152606401610545565b61063e33600654610a6d565b61064942603c610cc3565b33600090815260076020526040902055565b610663610a13565b6001600160a01b0381166106c85760405162461bcd60e51b815260206004820152602660248201527f4f776e61626c653a206e6577206f776e657220697320746865207a65726f206160448201526564647265737360d01b6064820152608401610545565b6104a781610b2c565b6001600160a01b0383166107335760405162461bcd60e51b8152602060048201526024808201527f45524332303a20617070726f76652066726f6d20746865207a65726f206164646044820152637265737360e01b6064820152608401610545565b6001600160a01b0382166107945760405162461bcd60e51b815260206004820152602260248201527f45524332303a20617070726f766520746f20746865207a65726f206164647265604482015261737360f01b6064820152608401610545565b6001600160a01b0383811660008181526001602090815260408083209487168084529482529182902085905590518481527f8c5be1e5ebec7d5bd14f71427d1e84f3dd0314c0f7b2291e5b200ac8c7c3b925910160405180910390a3505050565b600061080184846105b0565b90506000198114610869578181101561085c5760405162461bcd60e51b815260206004820152601d60248201527f45524332303a20696e73756666696369656e7420616c6c6f77616e63650000006044820152606401610545565b61086984848484036106d1565b50505050565b6001600160a01b0383166108d35760405162461bcd60e51b815260206004820152602560248201527f45524332303a207472616e736665722066726f6d20746865207a65726f206164604482015264647265737360d81b6064820152608401610545565b6001600160a01b0382166109355760405162461bcd60e51b815260206004820152602360248201527f45524332303a207472616e7366657220746f20746865207a65726f206164647260448201526265737360e81b6064820152608401610545565b6001600160a01b038316600090815260208190526040902054818110156109ad5760405162461bcd60e51b815260206004820152602660248201527f45524332303a207472616e7366657220616d6f756e7420657863656564732062604482015265616c616e636560d01b6064820152608401610545565b6001600160a01b03848116600081815260208181526040808320878703905593871680835291849020805487019055925185815290927fddf252ad1be2c89b69c2b068fc378daa952ba7f163c4a11628f55a4df523b3ef910160405180910390a3610869565b6005546001600160a01b031633146104ca5760405162461bcd60e51b815260206004820181905260248201527f4f776e61626c653a2063616c6c6572206973206e6f7420746865206f776e65726044820152606401610545565b6001600160a01b038216610ac35760405162461bcd60e51b815260206004820152601f60248201527f45524332303a206d696e7420746f20746865207a65726f2061646472657373006044820152606401610545565b8060026000828254610ad59190610cc3565b90915550506001600160a01b038216600081815260208181526040808320805486019055518481527fddf252ad1be2c89b69c2b068fc378daa952ba7f163c4a11628f55a4df523b3ef910160405180910390a35050565b600580546001600160a01b038381166001600160a01b0319831681179093556040519116919082907f8be0079c531659141344cd1fd0a4f28419497f9722a3daafe3b4186f6b6457e090600090a35050565b80356001600160a01b0381168114610b9557600080fd5b919050565b600060208284031215610bac57600080fd5b610bb582610b7e565b9392505050565b60008060408385031215610bcf57600080fd5b610bd883610b7e565b9150610be660208401610b7e565b90509250929050565b600080600060608486031215610c0457600080fd5b610c0d84610b7e565b9250610c1b60208501610b7e565b9150604084013590509250925092565b60008060408385031215610c3e57600080fd5b610c4783610b7e565b946020939093013593505050565b600060208284031215610c6757600080fd5b5035919050565b600060208083528351808285015260005b81811015610c9b57858101830151858201604001528201610c7f565b81811115610cad576000604083870101525b50601f01601f1916929092016040019392505050565b60008219821115610ce457634e487b7160e01b600052601160045260246000fd5b500190565b600181811c90821680610cfd57607f821691505b60208210811415610d1e57634e487b7160e01b600052602260045260246000fd5b5091905056fea2646970667358221220eed475d9d25886853b4752f2a0b65c0d9cc65f5cc7c66ae1d3725d3689dfc02964736f6c63430008070033",
    "linkReferences": {},
    "deployedLinkReferences": {}
}